:020000040000fa
:080000000002040000000000f2
:020000040000fa
:0400080022040000ce
:020000040000fa
:04000c006404000088
:020000040000fa
:04001000a404000044
:020000040000fa
:0400140042040000a2
:020000040000fa
:04001800840400005c
:020000040000fa
:04001c009605000045
:020000040000fa
:04002000c404000014
:020000040000fa
:04002400960500003d
:020000040000fa
:04002800860300004b
:020000040000fa
:04002c000e030000bf
:020000040000fa
:040030009605000031
:020000040000fa
:04003400960500002d
:020000040000fa
:040038009605000029
:020000040000fa
:04003c009605000025
:020000040000fa
:040040009605000021
:020000040000fa
:04004400960500001d
:020000040000fa
:040048009605000019
:020000040000fa
:04004c009605000015
:020000040000fa
:040050009605000011
:020000040000fa
:04005400960500000d
:020000040000fa
:040058009605000009
:020000040000fa
:04005c009605000005
:020000040000fa
:040060009605000001
:020000040000fa
:04006400ba030000db
:020000040000fa
:0400680096050000f9
:020000040000fa
:04006c0096050000f5
:020000040000fa
:0400700096050000f1
:020000040000fa
:0400740096050000ed
:020000040000fa
:04007800ee03000093
:020000040000fa
:04007c0096050000e5
:020000040000fa
:0400800096050000e1
:020000040000fa
:0400840096050000dd
:020000040000fa
:0400880096050000d9
:020000040000fa
:04008c0096050000d5
:020000040000fa
:0400900096050000d1
:020000040000fa
:0400940096050000cd
:020000040000fa
:0400980096050000c9
:020000040000fa
:04009c0096050000c5
:020000040000fa
:0400a00096050000c1
:020000040000fa
:0400a40096050000bd
:020000040000fa
:0400a80096050000b9
:020000040000fa
:0400ac0096050000b5
:020000040000fa
:0400b00096050000b1
:020000040000fa
:0400b40096050000ad
:020000040000fa
:0400b80096050000a9
:020000040000fa
:0400bc0096050000a5
:020000040000fa
:0400c00096050000a1
:020000040000fa
:0400c400960500009d
:020000040000fa
:0400c8009605000099
:020000040000fa
:0400cc009605000095
:020000040000fa
:0400d0009605000091
:020000040000fa
:0400d400960500008d
:020000040000fa
:0400d8009605000089
:020000040000fa
:0400dc009605000085
:020000040000fa
:0400e0009605000081
:020000040000fa
:0400e400960500007d
:020000040000fa
:0400e8009605000079
:020000040000fa
:0400ec009605000075
:020000040000fa
:0400f0009605000071
:020000040000fa
:0400f400960500006d
:020000040000fa
:0400f8009605000069
:020000040000fa
:0400fc009605000065
:020000040000fa
:040100009605000060
:020000040000fa
:04010400960500005c
:020000040000fa
:040108009605000058
:020000040000fa
:04010c009605000054
:020000040000fa
:040110009605000050
:020000040000fa
:04011400960500004c
:020000040000fa
:040118009605000048
:020000040000fa
:04011c009605000044
:020000040000fa
:040120009605000040
:020000040000fa
:04012400960500003c
:020000040000fa
:040128009605000038
:020000040000fa
:04012c009605000034
:020000040000fa
:040130009605000030
:020000040000fa
:04013400960500002c
:020000040000fa
:040138009605000028
:020000040000fa
:04013c009605000024
:020000040000fa
:040140009605000020
:020000040000fa
:04014400960500001c
:020000040000fa
:040148009605000018
:020000040000fa
:04014c009605000014
:020000040000fa
:040150009605000010
:020000040000fa
:04015400960500000c
:020000040000fa
:040158009605000008
:020000040000fa
:04015c009605000004
:020000040000fa
:040160009605000000
:020000040000fa
:0401640096050000fc
:020000040000fa
:0401680096050000f8
:020000040000fa
:04016c0096050000f4
:020000040000fa
:0401700096050000f0
:020000040000fa
:0401740096050000ec
:020000040000fa
:0401780096050000e8
:020000040000fa
:04017c0096050000e4
:020000040000fa
:0401800096050000e0
:020000040000fa
:0401840096050000dc
:020000040000fa
:0401880096050000d8
:020000040000fa
:04018c0096050000d4
:020000040000fa
:0401900096050000d0
:020000040000fa
:0401940096050000cc
:020000040000fa
:0401980096050000c8
:020000040000fa
:04019c0096050000c4
:020000040000fa
:0401a00096050000c0
:020000040000fa
:0401a40096050000bc
:020000040000fa
:0401a80096050000b8
:020000040000fa
:0401ac0096050000b4
:020000040000fa
:0401b00096050000b0
:020000040000fa
:0401b40096050000ac
:020000040000fa
:0401b80096050000a8
:020000040000fa
:0401bc0096050000a4
:020000040000fa
:0401c00096050000a0
:020000040000fa
:0401c400960500009c
:020000040000fa
:0401c8009605000098
:020000040000fa
:0401cc009605000094
:020000040000fa
:0401d0009605000090
:020000040000fa
:0401d400960500008c
:020000040000fa
:0401d8009605000088
:020000040000fa
:0401dc009605000084
:020000040000fa
:0401e0009605000080
:020000040000fa
:0401e400960500007c
:020000040000fa
:0401e8009605000078
:020000040000fa
:0401ec009605000074
:020000040000fa
:0401f0009605000070
:020000040000fa
:0401f400960500006c
:020000040000fa
:0401f8009605000068
:020000040000fa
:0401fc009605000064
:020000040000fa
:04020000960500005f
:020000040000fa
:04020400960500005b
:020000040000fa
:040208009605000057
:020000040000fa
:04020c009605000053
:020000040000fa
:04021000960500004f
:020000040000fa
:04021400960500004b
:020000040000fa
:040218009605000047
:020000040000fa
:04021c009605000043
:020000040000fa
:04022000960500003f
:020000040000fa
:04022400960500003b
:020000040000fa
:040228009605000037
:020000040000fa
:04022c009605000033
:020000040000fa
:04023000960500002f
:020000040000fa
:04023400960500002b
:020000040000fa
:040238009605000027
:020000040000fa
:04023c009605000023
:020000040000fa
:04024000960500001f
:020000040000fa
:04024400960500001b
:020000040000fa
:040248009605000017
:020000040000fa
:04024c009605000013
:020000040000fa
:04025000960500000f
:020000040000fa
:04025400960500000b
:020000040000fa
:040258009605000007
:020000040000fa
:04025c009605000003
:020000040000fa
:0402600096050000ff
:020000040000fa
:0402640096050000fb
:020000040000fa
:0402680096050000f7
:020000040000fa
:04026c0096050000f3
:020000040000fa
:0402700096050000ef
:020000040000fa
:0402740096050000eb
:020000040000fa
:0402780096050000e7
:020000040000fa
:04027c0096050000e3
:020000040000fa
:0402800096050000df
:020000040000fa
:0402840096050000db
:020000040000fa
:0402880096050000d7
:020000040000fa
:04028c0096050000d3
:020000040000fa
:0402900096050000cf
:020000040000fa
:0402940096050000cb
:020000040000fa
:0402980096050000c7
:020000040000fa
:04029c0096050000c3
:020000040000fa
:0402a00096050000bf
:020000040000fa
:0402a40096050000bb
:020000040000fa
:0402a80096050000b7
:020000040000fa
:0402ac0096050000b3
:020000040000fa
:0402b00096050000af
:020000040000fa
:0402b40096050000ab
:020000040000fa
:0402b80096050000a7
:020000040000fa
:0402bc0096050000a3
:020000040000fa
:0402c000960500009f
:020000040000fa
:0402c400960500009b
:020000040000fa
:0402c8009605000097
:020000040000fa
:0402cc009605000093
:020000040000fa
:0402d000960500008f
:020000040000fa
:0402d400960500008b
:020000040000fa
:0402d8009605000087
:020000040000fa
:0402dc009605000083
:020000040000fa
:0402e000960500007f
:020000040000fa
:0402e400960500007b
:020000040000fa
:0402e8009605000077
:020000040000fa
:0402ec009605000073
:020000040000fa
:0402f000960500006f
:020000040000fa
:0402f400960500006b
:020000040000fa
:0402f8009605000067
:020000040000fa
:0402fc009605000063
:020000040000fa
:04030000960500005e
:020000040000fa
:04030400960500005a
:020000040000fa
:040308009605000056
:020000040000fa
:04030c009605000052
:020000040000fa
:04031000960500004e
:020000040000fa
:04031400960500004a
:020000040000fa
:040318009605000046
:020000040000fa
:04031c009605000042
:020000040000fa
:04032000960500003e
:020000040000fa
:04032400960500003a
:020000040000fa
:040328001e050000ae
:020000040000fa
:04032c005a0500006e
:020000040000fa
:04033000960500002e
:020000040000fa
:04033400960500002a
:020000040000fa
:10040000cf0321000eff26000e018800000000002f
:10041000000020000000e000020032000001200087
:100420002002880014000700c20107000000e0005d
:1004300003003a00601f2100010020000200370085
:100440000000200001002000810f70000100320038
:100450000f000700000020000000e0000200320052
:1004600000000200000000004c0f0200000000002d
:100470000040da000000fe00800820000000e000dc
:1004800002003200002020009001880000000600d9
:10049000a1028800800478000000eb001f003700f4
:1004a000e284440054a0b4009905ba00e2844400f8
:1004b00054a0b4009906ba00e284440054a0b400e9
:1004c0000006eb00476fde00fd07b200ae018800ba
:1004d000636ce10003003a000ad801000000eb0061
:1004e0000e003700606ce10008003a00004deb00a0
:1004f0000a05e800020039003420ec000af0a000f0
:100500008b05e900f9ff3e00040037006168e10057
:10051000010032000086eb000b00070019c7ba008b
:100520001905ba000e04e00003003a000a00e000da
:10053000dbff3a0000000600fe07b200ae028800b2
:100540008a047800f5ff37000cd0a300e20f4d00bd
:100550001c003b0089027800354dba000a05e8000e
:10056000020039003420ec000af0a0008b05e900fd
:100570000f003200254dba000a05e80002003900dc
:100580003420ec000af0a0008b05e90008003200de
:100590000c00e0000600320015cdba000a05e800a4
:1005a000020039003420ec000af0a0008b05e900bd
:1005b0008984e80054a0b4000b00e000e2ff3a0098
:1005c000000006009902ba00055d78008b05e9007d
:1005d000f7ff3200c82ade00055d78008b05e900d0
:1005e000f3ff32000c00e000f1ff320019ddba0029
:1005f000eeff3700cc0b040000000000fa0b0400f3
:10060000000000002c0c0400000000005e0c040040
:1006100000000000720c040000000000809fbe007b
:100620003200f8003400f80010002000a00188001b
:100630000020200000d0fe000000fa002080800092
:100640000000e80020808800030037000080800060
:100650006800400000808800008080000080e80082
:100660009000780020808000808f5000f7ff3500d8
:100670003e6ea9003e4ea9003e2ea9001300370091
:1006800000808000104078000000fb00e10f500067
:1006900006003200e20f5000060032000000e000c9
:1006a00006003a003e6ea800050037003e4ea80046
:1006b000030037003e2ea8000100370000000000b4
:1006c000008080006800400000808800008080007a
:1006d0000080e8009000780020808000808f50002b
:1006e000e7ff320023aea80023aea90023cea80066
:1006f00023cea9000028a9000080fa003400f900e8
:100700003200f9004f00be00004006003600f8003d
:10071000809fbe00829fbe00849fbe00869fbe0059
:100720003200f8003400f80010002000a00188001a
:100730000020200000d0fe000200fa002008800007
:10074000000f78009e0078000040eb00eb050700ea
:100750000080fa003400f9003200f9004f03be00b7
:100760004f02be004f01be004f00be003600f90030
:10077000004006003600f800809fbe00829fbe0049
:10078000849fbe00869fbe003200f8003400f8004f
:1007900010002000a00188000020200000d0fe00f2
:1007a0000200fa0020088000000f78009e00780008
:1007b00010c0b300d10507000080fa003400f90032
:1007c0003200f9004f03be004f02be004f01be00d1
:1007d0004f00be003600f900004006003600f80069
:1007e000809fbe00829fbe00849fbe00869fbe0089
:1007f0003200f8003400f80010002000a00188004a
:100800000020200000d0fe000200fa002008800036
:10081000000f78009e00780020c0b300b7050700e5
:100820000080fa003400f9003200f9004f03be00e6
:100830004f02be004f01be004f00be003600f9005f
:10084000004006003600f800809fbe00829fbe0078
:10085000849fbe00869fbe000000fa00c028a90049
:100860000000eb000d0707000080fa004f03be00f8
:100870004f02be004f01be004f00be003600f9001f
:10088000004006003600f800809fbe00829fbe0038
:10089000849fbe00869fbe000000fa000407070088
:1008a000c048a90010002000fc0607000080fa00e4
:1008b0004f03be004f02be004f01be004f00be00fe
:1008c0003600f900004006003600f800809fbe00a8
:1008d000829fbe00849fbe00869fbe000000fa007b
:1008e000c068a90020002000ec0607000080fa0084
:1008f0004f03be004f02be004f01be004f00be00be
:100900003600f900004006003600f800809fbe0067
:10091000829fbe00849fbe00869fbe000000fa003a
:10092000c088a90030002000dc0607000080fa0023
:100930004f03be004f02be004f01be004f00be007d
:100940003600f900004006003600f800809fbe0027
:10095000829fbe00849fbe00869fbe000000fa00fa
:10096000c608a90070002000cc0607000080fa002d
:100970004f03be004f02be004f01be004f00be003d
:100980003600f900004006003600f800809fbe00e7
:10099000829fbe00849fbe00869fbe000000fa00ba
:1009a0002146800000102000008060000000e00070
:1009b00003003200c508a900c0002000b7060700e8
:1009c0002146800000002800008060000000e00058
:1009d00003003200c5e8a90080002000af06070030
:1009e0002146800000022000008060000000e0003e
:1009f00003003200c4a8a90090002000a706070049
:100a000020468000700060000000e000030032001b
:100a1000c488a900a0002000a0060700204680008e
:100a2000610060000000e00003003200c408a9007b
:100a3000b000200099060700ffff37003600f800dd
:100a4000809fbe00829fbe00849fbe00869fbe0026
:100a50003200f8003400f80010002000a0018800e7
:100a60000020200000d0fe000200fa00e1618000ba
:100a7000010f7800808080000000e0000300320059
:100a8000818080001e007800010001001808a90084
:100a90000080fa003400f9003200f9004f03be0074
:100aa0004f02be004f01be004f00be003600f900ed
:100ab000004006003600f800809fbe00829fbe0006
:100ac000849fbe00869fbe003200f8003400f8000c
:100ad00010002000a00188000020200000d0fe00af
:100ae0000200fa00f1618000010f78009080800020
:100af0000000e00003003200918080001e007800ba
:100b0000010001001828a9000080fa003400f90053
:100b10003200f9004f03be004f02be004f01be007d
:100b20004f00be003600f900004006000040da0029
:100b30000000fe00000005004f89de008201780001
:100b4000f001370007f82700078361000638e1004d
:100b500004003a00f70720008783610087037100d3
:100b600001003a0003f0a200889fbe008a9fbe00e9
:100b70008c9fbe00470ade000480a100c71ade0079
:100b80000580a100070028000785600087856100b7
:100b9000f70f20000720e1009e0032000728e10047
:100ba0009c003200010678000400e000b40032002e
:100bb000f7072000878060000170a0000500e000ba
:100bc000c0003200f7072000878161000370a00099
:100bd000050652000f003a000b50e1000b003200f6
:100be0000308e10002003a000200e1007e0032004a
:100bf0000204500083845800040031000001fd000d
:100c00008101fd008402fd008a05fd006044b800fa
:100c1000210037000520e10005003d000001fd0036
:100c20008101fd008402fd008a05fd0005065200d9
:100c30007a60e100050035000170a1004722dd0067
:100c4000848070008a807000630037006044b800c0
:100c5000ef02660007ff2f00070666000500e000b0
:100c600006003400f08312008714dd000511de0059
:100c7000071bdd00060171008519de007060e100d0
:100c8000050035000904780082047800030178002b
:100c90008001eb00700656000b50e10003003a00a3
:100ca0000200400083804800040037006004140004
:100cb000e0841c0002005800838058000188a300d3
:100cc000060032008100d1000080d3008984d30067
:100cd0000884d3000402e800270037000178a3004d
:100ce00025003a000100e000030032008186cf00b9
:100cf000698656000a0037008c0020000000e000e2
:100d000004003a0009007800880478000004eb0031
:100d1000700252008086cf000d0646000c06e900e6
:100d20007060e1000600350080007800090078005e
:100d3000880478000004eb00700656007002520030
:100d40000c00e0000c0034008c08dd00f0031600fd
:100d50000703de00868070000c00dd00074bde001c
:100d6000060070008c4cdd000743de0086847400b2
:100d70000c44dd000c0252006120e100200035002f
:100d8000610160000700280087816400f7ff2700e9
:100d900087836400070374000300e000060032004c
:100da00082037300040032000000e800e080480085
:100db0000188a3000e003a00f70f20000720e10091
:100dc0004a003d000170a1004722dd008100720051
:100dd0008a8070000000be004f06be004f05be00b6
:100de0004f04be00000006006000b800faff3700a4
:100df0008100d1000080d3000402e800eeff37003c
:100e00000401780089017400c20007008a80700024
:100e1000f1ff370018010700070278000001fd000c
:100e20008101fd001401070087027800850372002c
:100e30000778a300040032000001fd008101fd00dd
:100e400027010700e4ff3700850362000768a3005d
:100e5000080032000b50e10003003200f0ff2f00c9
:100e6000f1ff2700dcff37000001fd008101fd00dc
:100e7000d9ff37000468a300d7ff3200faff37001c
:100e8000f8ff2700888360000b003a000000e000b4
:100e900009003a0083036400828373000200320079
:100ea0000200be00ccff37000b50e100ceff3a003d
:100eb0000200be00c8ff370014002000810064005b
:100ec0003eff3700f8ff27008883610004003a00e6
:100ed0000200e00002003a008c007800beff3700fc
:100ee000150020008301640039ff370001f8270056
:100ef0000000200081007500b7ff37000383680001
:100f00000700280007036300470ade000480a100f1
:100f1000c71ade000580a100f70f20000720e100be
:100f2000420032000728e10040003200889fbe00e6
:100f30008a9fbe008c1f7800f107b200f307b20051
:100f40000400e000640032000170a0000500e00031
:100f5000680032000370a00085054200eb07b10075
:100f60000204b8000302b8008484440060854a008b
:100f7000020ab800848444000a854a00030ab800c3
:100f800004054500040033000804d0008984d20021
:100f90000a85d2008b05e9006158e1003d0035006b
:100fa000021020000901610003082000898161000e
:100fb000f70720008783640008867300c84cde00b2
:100fc000c853dd00878474004855de000300e0004c
:100fd0000600320082037600040032008904e80033
:100fe00060054d000a88a3000c003a00f70f2000ae
:100ff0000758e10044003d000a70a100c75ddd0014
:101000000a8575008a007300090078004f06780091
:101010004f05be004f04be00000006000a05d100c7
:101020008984d3008b05e800f0ff3700881f780023
:101030000604780090000700070278000001fd0018
:101040008101fd008c000700870278008503720093
:101050000778a300050032000001fd008101fd00ba
:101060009f0007004f04780000000600850372000f
:101070000748a30003003200f0ff2f00f1ff270014
:10108000f8ff37000000200001f82700888070007a
:10109000f4ff3700880178004848dd008081710046
:1010a0004848de00c850dd0001007000c850de0076
:1010b000060478000b017800160007008880700095
:1010c000d2ff37000500e0000500320017002000c5
:1010d0003a0007009dff370081037000f9ff3a00d6
:1010e000860078004f0678004f05be004f04be0012
:1010f0000000050083037100f9ff32002700200083
:101100002e00070094ff370001f82700868070004a
:10111000f4ff37000100e0002600320061011100f9
:101120007810e10023003c006022b8007010e1005c
:101130000400350080027800010078008000eb0098
:10114000700151000200e00009003400700311003a
:10115000062add00822ade008603dd008782720017
:101160000200de00860bdd00070070008208de0052
:1011700084817100f4ff2700048262008481710081
:1011800004002800848262006102600005f0a6006d
:101190000000060004827100070032000000e80031
:1011a000e0804800000006000002be006000b800b9
:1011b000efff37006000b80000000600889fbe0007
:1011c0000004eb006138e10016003a000100e00085
:1011d00008003a00c800de004800dd00880020005a
:1011e0000100e00003003a00c800de004800dd0016
:1011f000680444008184cf00e98454000600340070
:101200008908dd00f08314008703de00878070000a
:101210000900dd0009044400610214004f04be000f
:10122000000006000300e00008003a00c811de00dc
:101230004811dd00880020000300e00003003a00b0
:10124000c811de004811dd00680444008384cf002b
:10125000e9845400060034008919dd00f08314008d
:101260008713de00878171000911dd000904440045
:10127000e1021400e9ff37002700200001f0a70079
:1012800017002000470bde00f60fb200040032000a
:101290000643e8000a0032004702b30000000600df
:1012a00001037800f607b2000603700002003a005e
:1012b0000703b300000006008702b3000000060029
:1012c00001037800f607b200060370000200320046
:1012d0000770a000000006000760a00000000600e4
:1012e0000478a300040032000578a3000300320054
:1012f0000168a30001003a000200be000160a000e6
:1013000000000600881f7800030478000300e00056
:1013100007003d0060001000e08018006001190027
:10132000e081190002003b0001f02d0003003700ae
:101330000400070008f0a70001f0a0004f047800a7
:1013400000000600889fbe008a9fbe0000827000d9
:101350000402710004827100260032000004be0005
:101360000200be006011b8006b0920009502200049
:101370000182cf000a0039000541b1000082cf0090
:10138000070039000541b1000982cf00040039008f
:101390000541b1000882cf00010039000541b100cc
:1013a00005425200120032000a003b0082817100a7
:1013b000610164008100d1000080d3008984d300e2
:1013c0000884d3008b05e8000442e800f7ff3a00e8
:1013d000070037000804440089844c0000004800de
:1013e000818048008b05e9000442e900f9ff3a00da
:1013f000030007004f05be004f04be0000000600ba
:1014000081002000618055000b003d000b00200092
:1014100061fe2f000100e1001d0034008281710097
:10142000610164008904d1000884d3000000e80051
:10143000faff3a00710020006100640003007000b0
:10144000020060000900320061044400e0844c00a6
:101450000988a500050032008b05e8006808e10056
:1014600002003a008904d1000884d300f20f200062
:101470000258e10005003d00c75ddd00f907b2003c
:101480008980750008007800000006000bf827002e
:081490008b007800000005004c
:020000040000fa
:1014980002000000000000005d0d000000000000d8
:1014a80001000000040000009d0c00000000000086
:1014b8000000000008000000e70b0000000000002a
:1014c80002000000100000005d0d00000000000098
:1014d80001000000140000009d0c00000000000046
:1014e8000000000018000000e70b000000000000ea
:1014f8000000000020000000e70b000000000000d2
:101508000000000022000000e70b000000000000bf
:101518000000000024000000e70b000000000000ad
:101528000000000026000000e70b0000000000009b
:1015380001000000280000009d0c000000000000d1
:10154800010000002a0000009d0c000000000000bf
:10155800010000002c0000009d0c000000000000ad
:10156800010000002e0000009d0c0000000000009b
:1015780002000000300000005d0d000000000000c7
:1015880001000000340000009d0c00000000000075
:101598000000000038000000e70b00000000000019
:020000040000fa
:1015a8000000fa00002bef00000620001058880009
:1015b800042bef00062bef00082bef000a2bef009f
:1015c8000c2bef000e2bef00102bef00122bef006f
:1015d800142bef00162bef00202bef00003020001b
:1015e80010598800382bef00402bef00482bef00f4
:1015f800502bef003a2bef00422bef004a2bef0065
:10160800522bef003c2bef00442bef004c2bef004c
:10161800542bef003e2bef00462bef004e2bef0034
:10162800562bef0000402000505b8800004020004f
:10163800705b880000402000905b8800004020001c
:10164800b05b8800a02bef00a42bef00a82bef00c5
:10165800ac2bef00d02bef00d22bef00d42bef00f8
:10166800d82bef0000302000b05e8800003020004a
:10167800d05e8800f02bef00f22bef00022cef0079
:10168800c0bc200045000700a0bf20005b00070089
:10169800c0c2200072000700e0c5200089000700d2
:1016a80020c72000910007001808a9003808a800e2
:1016b8001828a9003828a8001160800000f0200030
:1016c800010070001060880001eba80025000700e9
:1016d800802bef00822bef00842bef00862bef008e
:1016e800882bef008a2bef008c2bef008e2bef005e
:1016f800902bef0010102000905c88001010200044
:10170800c05c88000080fa00000006000000fa00b3
:10171800000ca800000000000160800000102000fc
:10172800008060000000e000fbff32000a0ba80008
:101738000080fa00000006000000fa00002ca80053
:101748000000000001608000002020000080600090
:101758000000e000fbff32000a2ba8000080fa001e
:10176800000006000000fa0000eca80000000000dd
:101778000160800000002800008060000000e00098
:10178800fbff32000aeba8000080fa000000060008
:101798000000fa000080fa00000006000200fa00cb
:1017a800000f78001e007800508088000080fa0042
:1017b800000006000000fa005140800000402000b0
:1017c800008060000000e0000600320050808000c9
:1017d8000000e0000200320050808000000001009c
:1017e8000b48a9000080fa00000006000200fa0079
:1017f800000f78000080fa00000006000200fa00de
:10180800000f78001e007800608088000080fa00d1
:10181800000006000200fa00905980006400600091
:101828000000e0000800320081618000010f7800ac
:10183800608080000000e0000300320061808000ca
:101848001e007800010001000080fa000000060078
:101858000200fa00000f78000080fa00000006007d
:101868000200fa00000f78001e00780070808800df
:101878000080fa00000006000200fa00905980007b
:10188800680060000000e0000800320091618000fc
:10189800010f7800708080000000e0000300320033
:1018a800718080001e007800010001000080fa00ad
:1018b800000006000200fa00000f78000080fa001d
:1018c800000006000200fa00000f78001e007800f1
:1018d800808088000080fa00000006000200fa00fc
:1018e800000f78000080fa00000006000200fa00ed
:1018f800000f78001e007800908088000080fa00b1
:10190800000006000000fa0001eba8000080fa00c1
:10191800000006000000fa0001eba9000080fa00b0
:10192800000006000000fa0008cba8000080fa00ba
:10193800000006000000fa0008cba9000080fa00a9
:10194800000006000200fa00000f78000080fa008c
:10195800000006000400fa008e80e8008008780085
:101968000e80e80010007800e10f50000a003200f5
:10197800e10f500005003900e20f50000900320065
:10198800e30f50000a0032000c003700816180002c
:10199800010f78000900370091618000010f78007d
:1019a80006003700e1618000010f7800030037006e
:1019b800f1618000010f7800000000001e0078002f
:1019c8000080fa00000006000400fa008e80e8009b
:1019d800800878000e80e80010007800e10f5000c1
:1019e80011003200e10f500005003900e20f5000ed
:1019f80017003200e30f50001f00320028003700a4
:101a08009059800022800a00000000000080fb003e
:101a180000f0a7000000ea000000ea004f00de0026
:101a2800004f78001e0037009059800033800a006c
:101a3800000000000080fb0000f0a7000000ea00a2
:101a48000000ea004f00de00004f78001400370065
:101a58009059800088800a00000000000080fb0088
:101a680000f0a7000000ea000000ea004f00de00d6
:101a7800004f78000a0037009059800099800a00ca
:101a8800000000000080fb0000f0a7000000ea0052
:101a98000000ea004f00de00004f78000000000060
:101aa8001e4078000080fa00000006000200fa00dc
:101ab80094ff07000000eb00a2ff070099ff070052
:101ac80000a02600810120005702070099ff0700a7
:101ad800000000000000eb00bbff07000004a200ac
:101ae8000004e000fbff3a000000eb0099ff07004c
:101af800000f780087ff07001e0078000080fa00ba
:101b0800000006000200fa007eff07001000200017
:101b18008cff070083ff070000a02600810120003a
:101b28004102070083ff07000000000010002000aa
:101b3800a5ff07000004a2000004e000fbff3a0034
:101b48001000200083ff0700000f780071ff0700d6
:101b58001e0078000080fa00000006001200fa005b
:101b6800889fbe00f000470080087800f0ff200042
:101b7800000f78008000eb000e80e8000108780074
:101b88001100200064004700010878008000eb0085
:101b980066004700010878000e80e8001000780011
:101ba8009e0010006400470010017800660047009e
:101bb80010007800000051000001780005000900bd
:101bc8008200d800cf80de00d9fb070068014700fb
:101bd8000089be006600470010007800cf80de0054
:101be800d3fb07000004be00700047009000780097
:101bf8000e80e8001000780000805000cf80de00e2
:101c0800cbfb0700680147001201be00b9fc0700c2
:101c18000001be000800be00d1fb07006c014700b0
:101c28000089be006c0047001000be004f04be00d3
:101c38000080fa00000006000000fa00007c800026
:101c48000080fa00000006000200fa00faff070010
:101c5800000f78001e007800240007000004e00050
:101c680002003200000028007d0007001e007800f6
:101c78002c0007000004e0000200320000002400ed
:101c8800770007001e007800360007000004e00017
:101c98000200320000202000710007001e007800ba
:101ca800400007000004e0000200320000082000a5
:101cb8006b0007001e0078004a0007000004e000df
:101cc8000200320000042000650007001e007800b2
:101cd800540007000004e000020032000001200068
:101ce8005f0007000080fa00000006000400fa0008
:101cf8008e80e800800878000040eb00004f7800f4
:101d08000e80e800100078000000e00002003d00ae
:101d180010c0b300004f78001e4078000080fa0021
:101d2800000006000400fa008e80e80080087800b1
:101d38000040eb00004f78000e80e800900078002b
:101d480000002400008060000000e0000200320073
:101d580010c0b300004f78001e4078000080fa00e1
:101d6800000006000400fa008e80e8008008780071
:101d78000040eb00004f78000e80e80090007800eb
:101d880000202000008060000000e0000200320017
:101d980010c0b300004f78001e4078000080fa00a1
:101da800000006000400fa008e80e8008008780031
:101db8000040eb00004f78000e80e80090007800ab
:101dc80000082000008060000000e00002003200ef
:101dd80010c0b300004f78001e4078000080fa0061
:101de800000006000400fa008e80e80080087800f1
:101df8000040eb00004f78000e80e800900078006b
:101e080000042000008060000000e00002003200b2
:101e180010c0b300004f78001e4078000080fa0020
:101e2800000006000400fa008e80e80080087800b0
:101e38000040eb00004f78000e80e80010007800aa
:101e4800700060000000e0000200320010c0b30023
:101e5800004f78001e4078000080fa00000006005d
:101e68000200fa00000f78001e80ea00017c800062
:101e780001006000007c88000080fa000000060075
:101e88000000fa00802fef000080fa000000060032
:101e98008800fa007f000700a100070090000700f3
:101ea800a6000700c1a4280043000900311f7800dc
:101eb8008e08b1000e8088001e8088000900070087
:101ec800010037000000000021808000b0032000de
:101ed800808f5000fbff34000000eb000080fa0008
:101ee800000006000000fa0001e1a8000080fa00e6
:101ef800000006000800fa00640147000049780065
:101f08006600470001087800108080000080e80023
:101f18009000780020808000808050000e80e800cb
:101f2800010878000e80e800100078000000e0004a
:101f38000a003d006600470090007800702f2c00d2
:101f4800808040000e80e8001001780090d02300c7
:101f58008090b900008f4000070037000e80e8002d
:101f68009000780090d023008088b900e6004700f0
:101f780091007800010f4000d0812a009e0078006f
:101f8800808f500005003d0010808000bc000700d5
:101f9800108080006800400010808800d0812a00ee
:101fa8009e007800808f5000d7ff35001080800099
:101fb80090407800640047001040780080cf5000bf
:101fc8002a003a00502b2e009e007800808f500087
:101fd8000a003d0010002000b500070010808000b6
:101fe80021c0b300660040000148780010808000de
:101ff80068004000108088001d003700c0d4210010
:102008009e007800808f50000a003c0020002000cd
:10201800a70007001080800031c0b30066004000b0
:102028000148780010808000680040001080880017
:102038000f003700407e25009e007800808f5000fa
:102048000b003c0010002000990007001080800061
:1020580041c0b3006600400001487800108080004d
:102068006800400010808800010037000000000070
:102078000080fa00000006000000fa0000082400b2
:10208800904a8800100b2800804a88000080fa00d7
:10209800000006000000fa003a6ea9003a4ea900b6
:1020a8003a2ea9001faea9001fcea9001feea90055
:1020b800382ea900384ea900386ea90023eea900d1
:1020c8003e6ea9003e4ea9003e2ea90023aea900ef
:1020d80023cea90023eea8000080fa000000060025
:1020e8000000fa0001428000f0f82f0080806000b4
:1020f8000005200001007000004288002028a80088
:102108000142800080ff2f00008060006000b30063
:10211800004288002008a8000080fa00000006009d
:102128000000fa00603220000008880090d02300e8
:10213800400888000080fa00000006000000fa004d
:1021480017fd0700554ea800574ea800556ea80069
:10215800576ea8000080fa00000006000000fa0090
:1021680010002300307c880060092000407c880033
:102178008c2fef0010042000507c880010102000e5
:10218800707c880060092000807c88001004200092
:10219800907c88009a2fef00b82fef00ba2fef003d
:1021a800be2fef00002def00a02fef00a42fef00af
:1021b800a62fef00a82fef00aa2fef00ae2fef00f9
:1021c800b02fef00b22fef00720020008007200030
:1021d800a109200053f8200080497800814978003f
:1021e800824978000001eb0060042000710520009e
:1021f80043f82000804978008149780082497800b6
:102208000080fa00000006000000fa00707c8000e0
:10221800ee800a00000000000080fb0000f0a7002c
:102228000000ea000000ea004f00de0000407800ed
:102238000080fa00000006000200fa00000f780093
:10224800a08080001e004000a08088000080fa0066
:10225800000006000000fa00b0808000e40f500083
:1022680004003c00b08080000000e800b0808800d6
:1022780001003700000000000080fa00000006009e
:102288000200fa00000f78001630ef00c0808000ce
:102298000000e800c08088001e00780011c0b3006c
:1022a80066004000014878000080fa00000006003f
:1022b8000200fa00000f7800e6ff0700a080800007
:1022c8001e004000a08088000080fa000000060080
:1022d8000000fa00b0808000e40f500002003400d3
:1022e80010c0b300010037000040eb000080fa0086
:1022f800000006000000fa00062eef00222eef0074
:102308003e2eef005a2eef00f001200010708800da
:10231800d0ff2f00f07088000080eb00d07188009b
:102328000080eb00b07288000c2eef00282eef0022
:10233800442eef00602eef000a2eef00262eef004d
:10234800422eef005e2eef00082eef00242eef0045
:10235800402eef005c2eef00f00120000070880096
:10236800d0092000e0708800f00c2000c0718800bf
:1023780000c02200a07288000080fa000000060059
:102388000200fa00000f780021028000200f2000d0
:10239800008060001e007000200288000080fa00a3
:1023a800000006000000fa00c3e8a80000000000d2
:1023b800000000000080fa00000006000000fa009b
:1023c800ccff07002600070064ff070074fc070025
:1023d800f4ff070000022000e9ff07000080fa0070
:0423e80000000600eb
:020000040000fa
:1023ec00001000000a000000800000001410000023
:1023fc0006000000800000001c10000020000000ff
:10240c00800000001a100000020000008200000092
:10241c00ffff00000a1000000a000000800000000e
:04242c0000000000ac
:020000040000fa
:10243000f03fb1000180b10006003500ee03090055
:1024400000000000403fb1000180b100fbff3d00f3
:102450001000b000203fb0000200350000800900ed
:0824600000000000000006006e
:020000040000fa
:102468000000fa000145800080ff2f000080600016
:102478000000a0000045880001458000f0f82f000a
:10248800008060000040a000004588000080fa003d
:10249800000006000200fa00000f78009e00780095
:1024a800d1808800ffff37000000fa00c00121003a
:1024b8008007780040032100000188000080fa00ae
:0424c800000006000a
:020000040000fa
:020000040005f5
:047e0000ffffff0081
:020000040000fa
:020000040005f5
:047e2000ffffff0061
:020000040000fa
:020000040005f5
:047e3000faffff0056
:020000040000fa
:020000040005f5
:047e3800beffff008a
:020000040000fa
:020000040005f5
:047e4000ffffff0041
:020000040000fa
:020000040005f5
:047e4800ffffff0039
:020000040000fa
:020000040005f5
:047e5000deffff0052
:020000040000fa
:020000040005f5
:047e5800ffffff0029
:020000040000fa
:020000040005f5
:047e6000ffffff0021
:020000040000fa
:020000040005f5
:047e6800ffffff0019
:020000040000fa
:020000040005f5
:047e7000ffffff0011
:020000040000fa
:020000040005f5
:047e7800ffffff0009
:020000040000fa
:020000040005f5
:047e8000fffcff0004
:020000040000fa
:020000040005f5
:047e8800ffffff00f9
:020000040000fa
:020000040005f5
:047ff800ffffff0088
:00000001FF
