:020000040000fa
:080000000002040000000000f2
:020000040000fa
:040008003a040000b6
:020000040000fa
:04000c003a040000b2
:020000040000fa
:040010003a040000ae
:020000040000fa
:040014003a040000aa
:020000040000fa
:040018003a040000a6
:020000040000fa
:04001c003a040000a2
:020000040000fa
:040020003a0400009e
:020000040000fa
:040024003a0400009a
:020000040000fa
:040028009e03000033
:020000040000fa
:04002c00fa020000d4
:020000040000fa
:040030003a0400008e
:020000040000fa
:040034003a0400008a
:020000040000fa
:040038003a04000086
:020000040000fa
:04003c003a04000082
:020000040000fa
:040040003a0400007e
:020000040000fa
:040044003a0400007a
:020000040000fa
:040048003a04000076
:020000040000fa
:04004c003a04000072
:020000040000fa
:040050003a0400006e
:020000040000fa
:040054003a0400006a
:020000040000fa
:040058003a04000066
:020000040000fa
:04005c003a04000062
:020000040000fa
:040060003a0400005e
:020000040000fa
:04006400d2030000c3
:020000040000fa
:040068003a04000056
:020000040000fa
:04006c003a04000052
:020000040000fa
:040070003a0400004e
:020000040000fa
:040074003a0400004a
:020000040000fa
:04007800060400007a
:020000040000fa
:04007c003a04000042
:020000040000fa
:040080003a0400003e
:020000040000fa
:040084003a0400003a
:020000040000fa
:040088003a04000036
:020000040000fa
:04008c003a04000032
:020000040000fa
:040090003a0400002e
:020000040000fa
:040094003a0400002a
:020000040000fa
:040098003a04000026
:020000040000fa
:04009c003a04000022
:020000040000fa
:0400a0003a0400001e
:020000040000fa
:0400a4003a0400001a
:020000040000fa
:0400a8003a04000016
:020000040000fa
:0400ac003a04000012
:020000040000fa
:0400b0003a0400000e
:020000040000fa
:0400b4003a0400000a
:020000040000fa
:0400b8003a04000006
:020000040000fa
:0400bc003a04000002
:020000040000fa
:0400c0003a040000fe
:020000040000fa
:0400c4003a040000fa
:020000040000fa
:0400c8003a040000f6
:020000040000fa
:0400cc003a040000f2
:020000040000fa
:0400d0003a040000ee
:020000040000fa
:0400d4003a040000ea
:020000040000fa
:0400d8003a040000e6
:020000040000fa
:0400dc003a040000e2
:020000040000fa
:0400e0003a040000de
:020000040000fa
:0400e4003a040000da
:020000040000fa
:0400e8003a040000d6
:020000040000fa
:0400ec003a040000d2
:020000040000fa
:0400f0003a040000ce
:020000040000fa
:0400f4003a040000ca
:020000040000fa
:0400f8003a040000c6
:020000040000fa
:0400fc003a040000c2
:020000040000fa
:040100003a040000bd
:020000040000fa
:040104003a040000b9
:020000040000fa
:040108003a040000b5
:020000040000fa
:04010c003a040000b1
:020000040000fa
:040110003a040000ad
:020000040000fa
:040114003a040000a9
:020000040000fa
:040118003a040000a5
:020000040000fa
:04011c003a040000a1
:020000040000fa
:040120003a0400009d
:020000040000fa
:040124003a04000099
:020000040000fa
:040128003a04000095
:020000040000fa
:04012c003a04000091
:020000040000fa
:040130003a0400008d
:020000040000fa
:040134003a04000089
:020000040000fa
:040138003a04000085
:020000040000fa
:04013c003a04000081
:020000040000fa
:040140003a0400007d
:020000040000fa
:040144003a04000079
:020000040000fa
:040148003a04000075
:020000040000fa
:04014c003a04000071
:020000040000fa
:040150003a0400006d
:020000040000fa
:040154003a04000069
:020000040000fa
:040158003a04000065
:020000040000fa
:04015c003a04000061
:020000040000fa
:040160003a0400005d
:020000040000fa
:040164003a04000059
:020000040000fa
:040168003a04000055
:020000040000fa
:04016c003a04000051
:020000040000fa
:040170003a0400004d
:020000040000fa
:040174003a04000049
:020000040000fa
:040178003a04000045
:020000040000fa
:04017c003a04000041
:020000040000fa
:040180003a0400003d
:020000040000fa
:040184003a04000039
:020000040000fa
:040188003a04000035
:020000040000fa
:04018c003a04000031
:020000040000fa
:040190003a0400002d
:020000040000fa
:040194003a04000029
:020000040000fa
:040198003a04000025
:020000040000fa
:04019c003a04000021
:020000040000fa
:0401a0003a0400001d
:020000040000fa
:0401a4003a04000019
:020000040000fa
:0401a8003a04000015
:020000040000fa
:0401ac003a04000011
:020000040000fa
:0401b0003a0400000d
:020000040000fa
:0401b4003a04000009
:020000040000fa
:0401b8003a04000005
:020000040000fa
:0401bc003a04000001
:020000040000fa
:0401c0003a040000fd
:020000040000fa
:0401c4003a040000f9
:020000040000fa
:0401c8003a040000f5
:020000040000fa
:0401cc003a040000f1
:020000040000fa
:0401d0003a040000ed
:020000040000fa
:0401d4003a040000e9
:020000040000fa
:0401d8003a040000e5
:020000040000fa
:0401dc003a040000e1
:020000040000fa
:0401e0003a040000dd
:020000040000fa
:0401e4003a040000d9
:020000040000fa
:0401e8003a040000d5
:020000040000fa
:0401ec003a040000d1
:020000040000fa
:0401f0003a040000cd
:020000040000fa
:0401f4003a040000c9
:020000040000fa
:0401f8003a040000c5
:020000040000fa
:0401fc003a040000c1
:020000040000fa
:040200003a040000bc
:020000040000fa
:040204003a040000b8
:020000040000fa
:040208003a040000b4
:020000040000fa
:04020c003a040000b0
:020000040000fa
:040210003a040000ac
:020000040000fa
:040214003a040000a8
:020000040000fa
:040218003a040000a4
:020000040000fa
:04021c003a040000a0
:020000040000fa
:040220003a0400009c
:020000040000fa
:040224003a04000098
:020000040000fa
:040228003a04000094
:020000040000fa
:04022c003a04000090
:020000040000fa
:040230003a0400008c
:020000040000fa
:040234003a04000088
:020000040000fa
:040238003a04000084
:020000040000fa
:04023c003a04000080
:020000040000fa
:040240003a0400007c
:020000040000fa
:040244003a04000078
:020000040000fa
:040248003a04000074
:020000040000fa
:04024c003a04000070
:020000040000fa
:040250003a0400006c
:020000040000fa
:040254003a04000068
:020000040000fa
:040258003a04000064
:020000040000fa
:04025c003a04000060
:020000040000fa
:040260003a0400005c
:020000040000fa
:040264003a04000058
:020000040000fa
:040268003a04000054
:020000040000fa
:04026c003a04000050
:020000040000fa
:040270003a0400004c
:020000040000fa
:040274003a04000048
:020000040000fa
:040278003a04000044
:020000040000fa
:04027c003a04000040
:020000040000fa
:040280003a0400003c
:020000040000fa
:040284003a04000038
:020000040000fa
:040288003a04000034
:020000040000fa
:04028c003a04000030
:020000040000fa
:040290003a0400002c
:020000040000fa
:040294003a04000028
:020000040000fa
:040298003a04000024
:020000040000fa
:04029c003a04000020
:020000040000fa
:0402a0003a0400001c
:020000040000fa
:0402a4003a04000018
:020000040000fa
:0402a8003a04000014
:020000040000fa
:0402ac003a04000010
:020000040000fa
:0402b0003a0400000c
:020000040000fa
:0402b4003a04000008
:020000040000fa
:0402b8003a04000004
:020000040000fa
:0402bc003a04000000
:020000040000fa
:0402c0003a040000fc
:020000040000fa
:0402c4003a040000f8
:020000040000fa
:0402c8003a040000f4
:020000040000fa
:0402cc003a040000f0
:020000040000fa
:0402d0003a040000ec
:020000040000fa
:0402d4003a040000e8
:020000040000fa
:0402d8003a040000e4
:020000040000fa
:0402dc003a040000e0
:020000040000fa
:0402e0003a040000dc
:020000040000fa
:0402e4003a040000d8
:020000040000fa
:0402e8003a040000d4
:020000040000fa
:0402ec003a040000d0
:020000040000fa
:0402f0003a040000cc
:020000040000fa
:0402f4003a040000c8
:020000040000fa
:0402f8003a040000c4
:020000040000fa
:0402fc003a040000c0
:020000040000fa
:040300003a040000bb
:020000040000fa
:040304003a040000b7
:020000040000fa
:040308003a040000b3
:020000040000fa
:04030c003a040000af
:020000040000fa
:040310003a040000ab
:020000040000fa
:040314003a040000a7
:020000040000fa
:040318003a040000a3
:020000040000fa
:04031c003a0400009f
:020000040000fa
:040320003a0400009b
:020000040000fa
:040324003a04000097
:020000040000fa
:040328003a04000093
:020000040000fa
:04032c003a0400008f
:020000040000fa
:040330003a0400008b
:020000040000fa
:040334003a04000087
:020000040000fa
:10040000cf0021000eff26000e0188000000000032
:10041000000020000000e000020032000001200087
:100420002002880014000700140107000000e0000b
:1004300003003a008067200001002000020037001e
:100440000000200001002000810f70000100320038
:100450000f000700000020000000e0000200320052
:100460000000020000000000c804020000000000bc
:100470000040da000000fe00800820000000e000dc
:1004800002003200002020009001880000000600d9
:10049000a1028800800478000000eb001f003700f4
:1004a000e284440054a0b4009905ba00e2844400f8
:1004b00054a0b4009906ba00e284440054a0b400e9
:1004c0000006eb00476fde00fd07b200ae018800ba
:1004d000636ce10003003a000ad801000000eb0061
:1004e0000e003700606ce10008003a00004deb00a0
:1004f0000a05e800020039003420ec000af0a000f0
:100500008b05e900f9ff3e00040037006168e10057
:10051000010032000086eb000b00070019c7ba008b
:100520001905ba000e04e00003003a000a00e000da
:10053000dbff3a0000000600fe07b200ae028800b2
:100540008a047800f5ff37000cd0a300e20f4d00bd
:100550001c003b0089027800354dba000a05e8000e
:10056000020039003420ec000af0a0008b05e900fd
:100570000f003200254dba000a05e80002003900dc
:100580003420ec000af0a0008b05e90008003200de
:100590000c00e0000600320015cdba000a05e800a4
:1005a000020039003420ec000af0a0008b05e900bd
:1005b0008984e80054a0b4000b00e000e2ff3a0098
:1005c000000006009902ba00055d78008b05e9007d
:1005d000f7ff3200c82ade00055d78008b05e900d0
:1005e000f3ff32000c00e000f1ff320019ddba0029
:1005f000eeff37003600f800809fbe00829fbe00ed
:10060000849fbe00869fbe003200f8003400f800d0
:1006100010002000a00188000020200000d0fe0073
:100620000000fa00508080000000e8005080880040
:100630001100370051808000308080000080e80089
:100640001000780000805000ea0f500007003400ce
:100650003080800066004000104078000004e00018
:1006600002003a003080800049010700308080009d
:100670006800400030808800308080000080e80002
:100680009000780050808000808f5000e9ff350096
:100690003e6ea9003e4ea9003e2ea9001300370071
:1006a00030808000104078000000fb00e10f500017
:1006b00006003200e20f5000060032000000e000a9
:1006c00006003a003e6ea800050037003e4ea80026
:1006d000030037003e2ea800010037000000000094
:1006e00030808000680040003080880030808000ca
:1006f0000080e8009000780050808000808f5000db
:10070000e7ff320023aea80023aea90023cea80045
:1007100023cea9000028a9000080fa003400f900c7
:100720003200f9004f03be004f02be004f01be0071
:100730004f00be003600f900004006003600f80009
:10074000809fbe00829fbe00849fbe00869fbe0029
:100750003200f8003400f80010002000a0018800ea
:100760000020200000d0fe000200fa0020088000d7
:10077000000f78009e0078000040eb009500070015
:100780000080fa003400f9003200f9004f03be0087
:100790004f02be004f01be004f00be003600f90000
:1007a000004006003600f800809fbe00829fbe0019
:1007b000849fbe00869fbe003200f8003400f8001f
:1007c00010002000a00188000020200000d0fe00c2
:1007d0000200fa0020088000000f78009e007800d8
:1007e00010c0b3007b0007000080fa003400f9005d
:1007f0003200f9004f03be004f02be004f01be00a1
:100800004f00be003600f900004006003600f80038
:10081000809fbe00829fbe00849fbe00869fbe0058
:100820003200f8003400f80010002000a001880019
:100830000020200000d0fe000200fa002008800006
:10084000000f78009e00780020c0b3006100070010
:100850000080fa003400f9003200f9004f03be00b6
:100860004f02be004f01be004f00be003600f9002f
:10087000004006000040da000000fe000000050015
:020000040000fa
:1008800002000000000000005d0d000000000000fc
:1008900001000000040000009d0c000000000000aa
:1008a0000000000008000000e70b0000000000004e
:1008b00002000000100000005d0d000000000000bc
:1008c00001000000140000009d0c0000000000006a
:1008d0000000000018000000e70b0000000000000e
:1008e0000000000020000000e70b000000000000f6
:1008f0000000000022000000e70b000000000000e4
:100900000000000024000000e70b000000000000d1
:100910000000000026000000e70b000000000000bf
:1009200001000000280000009d0c000000000000f5
:10093000010000002a0000009d0c000000000000e3
:10094000010000002c0000009d0c000000000000d1
:10095000010000002e0000009d0c000000000000bf
:1009600002000000300000005d0d000000000000eb
:1009700001000000340000009d0c00000000000099
:100980000000000038000000e70b0000000000003d
:020000040000fa
:100990008800fa00ac000700ce000700bd00070089
:1009a0000144280043000900311f78008e08b1007f
:1009b0003e8088004e808800020007000000000092
:1009c000feff37000000fa0001e1a8000080fa00f5
:1009d000000006000800fa006401470000497800a2
:1009e0006600470001087800408080000080e80031
:1009f0009000780050808000808050000e80e800d9
:100a0000010878000e80e800100078000000e00087
:100a10000a003d006600470090007800702f2c000f
:100a2000808040000e80e8001001780090d0230004
:100a30008090b900008f4000070037000e80e8006a
:100a40009000780090d023008088b900e60047002d
:100a500091007800010f4000d0812a009e007800ac
:100a6000808f500007003d004080800011c0b3001f
:100a70006600400001487800408080006800400027
:100a800040808800d0812a009e007800808f50002e
:100a9000d5ff35004080800090407800640047001a
:100aa0001040780080cf500024003a00502b2e00d8
:100ab0009e007800808f500008003d00408080003c
:100ac00021c0b300660040000148780040808000eb
:100ad000680040004080880019003700c0d4210021
:100ae0009e007800808f500008003c00408080000d
:100af00031c0b300660040000148780040808000ab
:100b000068004000408088000d003700407e2500ce
:100b10009e007800808f500009003c0040808000db
:100b200041c0b3006600400001487800408080006a
:100b3000680040004080880001003700000000008d
:100b40000080fa00000006000200fa00000f7800a2
:100b5000008080001e004000008088000080fa00b5
:100b6000000006000000fa0010808000e40f500032
:100b700004003c00108080000000e8001080880025
:100b800001003700000000000080fa0000000600ad
:100b90000200fa00000f78000230ef002080800091
:100ba0000000e800208088001e00780080c0eb0074
:100bb00066004000014878000080fa00000006004e
:100bc0000400fa00000f78000e80e80001087800a9
:100bd000e4ff0700018080000e80e800100078002c
:100be00000804000008088000e80e800100078003f
:100bf000804078001e0078006600400001487800c0
:100c00000080fa00000006000000fa00108080005a
:100c1000e40f50000200340010c0b30001003700a0
:100c20000040eb000080fa00000006000000fa001f
:100c300000082400904a8800100b2800804a880091
:100c40000080fa00000006000000fa003a6ea900d9
:100c50003a4ea9003a2ea9001faea9001fcea90046
:100c60001feea900382ea900384ea900386ea90041
:100c700023eea9003e6ea9003e4ea9003e2ea9001b
:100c800023aea90023cea90023eea8000080fa001d
:100c9000000006000000fa0001428000f0f82f007a
:100ca0008080600000052000010070000042880084
:100cb0002028a8000142800080ff2f0000806000f3
:100cc0006000b300004288002008a8000080fa00fd
:100cd000000006000000fa006032200000088800d2
:100ce00090d02300400888000080fa000000060031
:020000040000fa
:100cf0000610000004000000800000000a10000040
:100d00000200000082000000f8ff00000010000058
:0c0d100006000000800000000000000051
:020000040000fa
:020000040005f5
:047e0000ffffff0081
:020000040000fa
:020000040005f5
:047e2000ffffff0061
:020000040000fa
:020000040005f5
:047e3000faffff0056
:020000040000fa
:020000040005f5
:047e3800beffff008a
:020000040000fa
:020000040005f5
:047e4000ffffff0041
:020000040000fa
:020000040005f5
:047e4800ffffff0039
:020000040000fa
:020000040005f5
:047e5000deffff0052
:020000040000fa
:020000040005f5
:047e5800ffffff0029
:020000040000fa
:020000040005f5
:047e6000ffffff0021
:020000040000fa
:020000040005f5
:047e6800ffffff0019
:020000040000fa
:020000040005f5
:047e7000ffffff0011
:020000040000fa
:020000040005f5
:047e7800ffffff0009
:020000040000fa
:020000040005f5
:047e8000fffcff0004
:020000040000fa
:020000040005f5
:047e8800ffffff00f9
:020000040000fa
:020000040005f5
:047ff800ffffff0088
:00000001FF
